:100000000C942F050C9476050C9476050C947605CB
:100010000C9476050C9476050C9476050C94760574
:100020000C9476050C9476050C941B270C94D7261B
:100030000C946E280C9476050C9476050C94760539
:100040000C9476050C9476050C9476050C94760544
:100050000C9476050C944A280C9476050C9476053D
:100060000C9476050C9476050C9476050C94760524
:100070000C9476050C9476050C9476050C94760514
:100080000C9476050C9476050C9476050C94760504
:100090000C9476050C9476050C9476050C947605F4
:1000A0000C9476050C9476050C94760507012BFFCD
:1000B000FFFF00000000010100FFFFFF0000000043
:1000C000020100FFFFFF000000000631FF0974A1DC
:1000D000010975150026FF00952075088102097633
:1000E000150026FF00952075089102C00501090240
:1000F000A10185020901A1000509190129081500BE
:100100002501950875018102050109300931158124
:10011000257F95027508810609381581257F95018F
:1001200075088106050C0A38021581257F95017531
:10013000088106C0C005010980A101850319012AB3
:10014000B700150126B700950175108100C0050C98
:100150000901A101850419012AA002150126A002A6
:10016000950175108100C00660FF0961A101096257
:10017000150026FF009520750881020963150026E9
:10018000FF00952075089102C005010906A101052F
:100190000719E029E71500250195087501810295E9
:1001A00001750881010507190029FF150026FF00C8
:1001B0009506750881000508190129059505750141
:1001C0009102950175039101C06F6E207574696C81
:1001D000206C61796572006F6E207063206C6179AC
:1001E0006572006F6E206D6163206C6179657200CD
:1001F00000000000000000000000000000000000FF
:1002000000000000000000000000000000000000EE
:10021000000000007E0F00D4FFFFFFC70000007841
:1002200000000000000000002A2B28000000000051
:100230000000000000000000000000290000000095
:100240002C1E3420212224342627252E362D373803
:10025000271E1F202122232425263333362E37380C
:100260001F0405060708090A0B0C0D0E0F101112CA
:10027000131415161718191A1B1C1D2F3130232D96
:10028000350405060708090A0B0C0D0E0F10111294
:10029000131415161718191A1B1C1D2F3130354C45
:1002A0000102E10102E36D0103E30103E100726772
:1002B000626C696768742064697361626C65205B55
:1002C000454550524F4D5D3A207267626C696768D0
:1002D000745F636F6E6669672E656E61626C652020
:1002E0003D2025750A007267626C69676874206535
:1002F0006E61626C65205B454550524F4D5D3A2002
:100300007267626C696768745F636F6E6669672E97
:10031000656E61626C65203D2025750A007267621A
:100320006C6967687420746F67676C65205B45450E
:1003300050524F4D5D3A207267626C696768745F16
:10034000636F6E6669672E656E61626C65203D2025
:1003500025750A0044454255473A20646973616235
:100360006C65642E0A0044454255473A20656E612B
:10037000626C65642E0A00A65DA75DA85DA95DAAF2
:100380005DAB5DAC5DAD5DAE5DAF5DB05DB15DB211
:100390005DB35DB45DB55DB65DB75DB85DB95DBAC1
:1003A0005DBB5DBC5DBD5DBE5DBF5DC05D4F6E652F
:1003B00073686F743A206163746976653A202564C6
:1003C0000A000A002530325820006B6579626F619F
:1003D00072645F7265706F72743A200077696E2084
:1003E00073686172696E67006D6163207368617222
:1003F000696E67007267626C696768745F636F6ECD
:100400006669672E7370656564203D2025640A0067
:100410007267626C696768745F636F6E6669672E86
:1004200076616C203D2025640A007267626C696702
:1004300068745F636F6E6669672E736174203D2018
:1004400025640A007267626C696768745F636F6E27
:100450006669672E687565203D2025640A0072670D
:10046000686C696768745F636F6E6669672E6D6F2D
:100470006465203D2025640A007267626C696768C4
:10048000745F636F6E6669672E656E61626C65206E
:100490003D2025640A007267626C696768745F6357
:1004A0006F6E66696720454550524F4D3A0A00729B
:1004B00067626C696768745F696E697420726762ED
:1004C0006C696768745F636F6E6669672E6D6F64D1
:1004D00065203D20302E2057726974652064656662
:1004E00061756C742076616C75657320746F20453E
:1004F0004550524F4D2E0A007267626C69676874EE
:100500005F696E6974206565636F6E6669672069EF
:1005100073206E6F7420656E61626C65642E0A00D4
:100520007267626C696768745F696E69742073745E
:10053000617274210A007267626C696768745F692E
:100540006E69742063616C6C65642E0A00C000B62D
:1005500000AC0000007267626C69676874206469AF
:100560007361626C65205B4E4F454550524F4D5D47
:100570003A207267626C696768745F636F6E666960
:10058000672E656E61626C65203D2025750A005BF3
:10059000735D000A0025303862003A2000253032B1
:1005A00058000A722F632030313233343536370A1F
:1005B0000000047F3F1F643214643214783C1E1E16
:1005C000140A050A0025303258006B6579626F61A4
:1005D00072645F7365745F6C65643A20004D696393
:1005E00020556E6D7574656420566964656F20537F
:1005F00074617274004D696320556E6D7574656425
:1006000020566964656F2053746F70004D696320D4
:100610004D7574656420566964656F20537461720A
:1006200074004D6963204D75746564205669646576
:100630006F2053746F7000290A002575002F002564
:1006400075005D2800256400200025640020002539
:10065000640020002564007C0025303258006D6F56
:100660007573656B6579205B62746E7C7820792088
:100670007620685D287265702F61636C293A205B73
:100680000000010101010101010101020202020257
:10069000020202020303030303030303040404042A
:1006A00004040405050505050606060606070707F2
:1006B000070708080808090909090A0A0A0B0B0BA9
:1006C0000C0C0C0D0D0D0E0E0E0F0F0F1010111146
:1006D00011121213131414151516161717181819CA
:1006E000191A1A1B1B1C1D1D1E1E1F202021222231
:1006F000232424252626272829292A2B2C2D2D2E74
:100700002F30313232333435363738393A3B3C3D8D
:100710003E3F404142434445464748494A4C4D4E7E
:100720004F50515354555658595A5B5D5E5F616244
:1007300064656668696B6C6D6F7072737577787AD3
:100740007B7D7E8082838587888A8C8E8F9193952E
:1007500096989A9C9EA0A2A3A5A7A9ABADAFB1B352
:10076000B5B7BABCBEC0C2C4C6C9CBCDCFD1D4D632
:10077000D8DBDDDFE2E4E7E9EBEEF0F3F5F8FAFDD4
:10078000FF7267626C69676874206D6F6465205BD7
:100790004E4F454550524F4D5D3A2025750A007227
:1007A00067626C69676874206D6F6465205B45459E
:1007B00050524F4D5D3A2025750A007267626C6990
:1007C00067687420656E61626C65205B4E4F4545BD
:1007D00050524F4D5D3A207267626C696768745F72
:1007E000636F6E6669672E656E61626C65203D2081
:1007F00025750A007267626C696768742073657496
:1008000020687376205B4E4F454550524F4D5D3A00
:100810002025752C25752C25750A007267626C6978
:100820006768742073657420687376205B45455053
:10083000524F4D5D3A2025752C25752C25750A00E3
:100840007267626C69676874207261696E626F7743
:1008500020736574206873763A2025642C25642CF7
:1008600025642C25750A00FFAA7F55407267626CCB
:10087000696768742074696D657220656E61626C69
:1008800065642E0A007267626C6967687420746917
:100890006D65722064697361626C652E0A002223A3
:1008A000252628292A2C2D2F3032333536383A3B4D
:1008B0003D3E4042434547494A4C4E50515355579F
:1008C000595A5C5E6062646668696B6D6F717375BE
:1008D00077797B7D7F81838587898A8C8E909294BE
:1008E00096989A9C9E9FA1A3A5A7A8AAACAEAFB1CB
:1008F000B3B4B6B8B9BBBCBEBFC1C2C3C5C6C7C915
:10090000CACBCCCDCED0D1D2D2D3D4D5D6D7D7D8CE
:10091000D9D9DADADBDBDBDCDCDCDCDCDDDDDDDD20
:10092000DCDCDCDCDCDBDBDBDADAD9D9D8D7D7D628
:10093000D5D4D3D2D2D1D0CECDCCCBCAC9C7C6C5DF
:10094000C3C2C1BFBEBCBBB9B8B6B4B3B1AFAEAC25
:10095000AAA8A7A5A3A19F9E9C9A98969492908ED0
:100960008C8A89878583817F7D7B79777573716FA9
:100970006D6B6968666462605E5C5A595755535185
:10098000504E4C4A4947454342403E3D3B3A38363B
:10099000353332302F2D2C2A2928262523225B435C
:1009A0005D005B445D005B535D005B575D005B5227
:1009B0005D0009027B00040100A0FA0904000001A7
:1009C00003010100092111010001224000070581F6
:1009D0000308000A090401000203000000092111B4
:1009E0000100012222000705820320000107050300
:1009F0000320000109040200010300000009211185
:100A0000010001227B000705840320000A0904037A
:100A10000002030000000921110100012222000749
:100A200005850320000107050503200001120100D0
:100A300002000000084D5909440100010200010CA8
:100A40000359004D0044003000390000000A0359EA
:100A5000004D0044004B0000000403090400112471
:100A60001FBECFEFDAE0DEBFCDBF04B603FE27C066
:100A700080916D0290916E02A0916F02B091700210
:100A80008730904BA740B04BD1F410926D0210927A
:100A90006E0210926F021092700214BE84B7877FAC
:100AA00084BF0FB6F894A895809160008861809308
:100AB0006000109260000FBEE0E0F8E3099511E0DD
:100AC000A0E0B1E0E6E2FEE502C005900D92AE388E
:100AD000B107D9F722E0AEE8B1E001C01D92AD3612
:100AE000B207E1F70E9495280C94D22E0C940000D6
:100AF000FF93EF93E0918E01F0918F01309709F011
:100B00000995EF91FF910895FC018591803011F0D6
:100B1000EFDFFBCF0895FF27E0E230E247FF0CC094
:100B2000419597FF09C0EDE260957095809590958D
:100B3000611D711D811D911D27FF02C0219530E3AC
:100B400050E2AA27660F771F881F991FAA1FA417B4
:100B500010F0A41B63955A95A9F7AA3008F0A95F75
:100B6000A05DAF93F395611571058105910541F77E
:100B7000ED3211F4EF93F395F21718F43F93F395D8
:100B8000FBCF8F91B5DFFA95E1F70895E991F991DF
:100B90008591803021F0853219F0AADFF9CF0895D0
:100BA00020E0E89455915532C1F3503311F4689424
:100BB00055915A3348F4505390F3220F022E220FCE
:100BC000220F200D250FF4CF0EF4219589919991D4
:100BD000533619F3533729F1533559F1BC0188279E
:100BE0009927E8945C3621F48991999168945591FC
:100BF000543639F446EF7EF077FF0DC08FEF9FEF4C
:100C00000AC055374AE039F0583540E121F05236F4
:100C100042E009F00895FF93EF937DDFEF91FF919C
:100C2000B7CFFF93EF93FC0181918030B9F360DF80
:100C3000FBCFFF93EF9368DFF1CFDF93CF93CDB777
:100C4000DEB72596A3DFCF91DF910895E8EDF0E0C0
:100C500080818E7F80831092E2001092DA001092E1
:100C6000E100A0EEB0E08C9181608C9380818F7761
:100C7000808319BCA7EDB0E08C918E7F8C9380812E
:100C80008F7E80831092530208952091E40030916A
:100C9000E50095E6A9012091EC00822F817020FFEC
:100CA00006C08091E80080FF06C080E00895209192
:100CB000E80022FD1AC080916002882389F0853007
:100CC00089F08091EB0085FD0FC02091E400309108
:100CD000E50042175307F9F29150E1F684E00895D8
:100CE00082E0089583E0089581E00895EF92FF92F5
:100CF0000F931F93CF937C018B010E944506C82F51
:100D0000811117C08091E80085FD0BC08091E8003B
:100D10008E778093E8000E944506882399F3C82FB8
:100D200008C0F70181917F018093F1000150110902
:100D300049F78C2FCF911F910F91FF90EF9008955D
:100D40008091620287FF13C08091E80082FF06C095
:100D50008091E8008B778093E80004C08091600266
:100D60008111F2CF0895809160028823D9F3809198
:100D7000E80080FFF8CF8091E8008E77ECCF982FC5
:100D80009093E900242F762F50E0891731F070916D
:100D9000EC002091ED005091F00021FD07C09F5F15
:100DA000973071F78093E90081E008953091EB006E
:100DB0003E7F3093EB003091ED003D7F3093ED00AE
:100DC0003091EB0031603093EB007093EC00209396
:100DD000ED005093F0002091EE0027FDE0CF80E081
:100DE0000895CF92DF92EF92FF920F931F93CF93CC
:100DF000DF93C8EDD0E088818F7E8883E7EDF0E057
:100E000080818160808384E082BF81E0809353028F
:100E100088818E7F888302EE10E0F80110821092A4
:100E2000DA0081EEC82ED12CF601108288818F77EE
:100E3000888388818068888388818F7D888319BCB6
:100E4000109260021092610210925F0210925E0294
:100E500090EEE92EF12CF70180818B7F80838881D1
:100E60008160888342E060E080E00E94BF06F60176
:100E700080818E7F8083F801808181608083808182
:100E800088608083F70180818E7F80838881806184
:100E90008883DF91CF911F910F91FF90EF90DF90AA
:100EA000CF900895FC0180916802909169028617A5
:100EB0009707A0F06115710529F49091E8009E77DD
:100EC0009093E80090E06115710551F4911108C00C
:100ED0008091E80082FF34C080E00895BC01F2CF29
:100EE000809160028823C1F18530C1F18091E800D2
:100EF00083FD30C08091E80082FDEACF8091E80058
:100F000080FFE1CF8091F3002091F200382F61152E
:100F1000710519F02830310558F091E0283031057D
:100F200009F090E02091E8002E772093E800CBCFE5
:100F300081918093F100615071092F5F3F4FE7CF9E
:100F400080916002882341F0853041F08091E80073
:100F500083FFBECF81E0089582E0089583E0089585
:100F600008958091550208959C014FB7F89480919F
:100F7000490290914A02A0914B02B0914C024FBF9E
:100F8000821B930B08952FB7F8948091490290919A
:100F90004A02A0914B02B0914C022FBF08952091BC
:100FA0004602309147022817390771F090934702A3
:100FB00080934602E0914402F0914502309721F07F
:100FC0000084F185E02D099408952091420230912A
:100FD00043022817390771F090934302809342022D
:100FE000E0914402F0914502309721F00680F781AC
:100FF000E02D09940895E0914402F0914502309764
:1010000021F00190F081E02D099480E00895FA012B
:10101000811101C0FB010994089580913D02982F30
:101020009E7F29F48170826080933D0208958A3406
:10103000E8F381708864F8CFAF92BF92DF92EF92AD
:10104000FF920F931F93CF93DF93082F162FE90181
:10105000E42FF0E0EF57F94F611110C0E4915E2FDB
:101060004E2F4983E8835A83DF91CF911F910F91CF
:10107000FF90EF90DF90BF90AF900895E62EF12C97
:101080004491D42EE42FF0E026E0829FC001112489
:101090002FEF30E0B9010E94E62D802F90E0880FFD
:1010A000991F55E5569FD001579FB00D11248A1BFB
:1010B0009B0B982F990F890F5901AE18BF08AE9E50
:1010C000D001AF9EB00DBE9EB00D11245B2F189FB6
:1010D00080011124012F11275901A01AB10AAE9ED7
:1010E0008001AF9E100DBE9E100D11245901A81A4B
:1010F000B108AE9CC001AF9C900DBE9C900D112418
:10110000892F9927281B390B2E9FC0012F9F900DE7
:101110003E9F900D1124E92F62307105A1F050F42B
:101120006115710509F49DCF6130710581F0EB2FD8
:10113000512F97CF6430710569F080F066307105EA
:1011400009F48FCFF4CFE42F4B2F592F8ACFE42F00
:10115000412F87CFEB2F542F492F83CF4B2F5D2D5E
:10116000E12F7FCF40910F028D3E59F48091100204
:1011700087FF0DC01092100241110BC0109208029F
:1011800008C08E3E81F48091100218169CF344230F
:1011900081F08091110290911202892B09F05AC0BE
:1011A0001092060208958F3E49F447FFF0CF109247
:1011B0000F02809110028111ECCFE0CF803F19F433
:1011C0001416ACF3E4CF90911102893F29F419165B
:1011D000F4F610921102DBCF8A3F19F497FFD7CFB4
:1011E000F8CF909112028B3F29F497FFD0CF109245
:1011F0001202CDCF8C3F19F41916CCF3C8CF9FE063
:10120000980F983090F4815F990B21E030E0B9019C
:1012100002C0660F771F8A95E2F7CB018095909107
:101220000E02892380930E02B2CF8D3F31F480915C
:1012300007028E7F80930702AACF8E3F21F4809110
:1012400007028D7FF7CF8F3F09F0A1CF8091070272
:101250008B7FF0CF08958091070280FD16C081FD3D
:1012600016C082FD16C0809106028823A1F0883244
:1012700080F428E0829FC001112468E270E00E949F
:10128000FA2D862F672B39F0089582E0089584E0C7
:10129000089588E0089581E008958091070280FD17
:1012A00014C081FD14C082FD16C0809108028823FD
:1012B00081F0843180F422E3829FC001112464E133
:1012C00070E00E94FA2D862F08958CE0089589E140
:1012D000089585E0089582E308958D3E31F40E94DB
:1012E0004D0981958093100208958E3E19F40E9455
:1012F0004D09F8CF8F3E31F40E944D0981958093BE
:101300000F020895803F19F40E944D09F8CF893FDC
:1013100029F40E942B098093110208958A3F21F439
:101320000E942B098195F7CF8B3F31F40E942B0946
:1013300081958093120208958C3F19F40E942B0925
:10134000F8CF9FE0980F983070F4815F990B21E0FF
:1013500030E001C0220F8A95EAF780910E02822BBD
:1013600080930E0208958D3F31F4809107028160D1
:101370008093070208958E3F21F4809107028260D6
:10138000F7CF8F3FB9F7809107028460F1CFF894CF
:10139000E82FE295EF70F0E031A1282F2F7081E067
:1013A00090E001C0880F2A95EAF7982F9095932333
:1013B00091A392A1892B82A3789408959091F7012B
:1013C00092FF06C0282F28712830F9F4877F8460A7
:1013D00093FF06C0282F28712831F1F4877E84619D
:1013E0002091F80120FF06C0382F38713830D9F429
:1013F000877F816021FF06C0282F28712831D1F412
:10140000877E816194FD877E0895282F2471243082
:10141000F9F68B7F8860DCCF282F2471243101F707
:101420008B7E8861DDCF382F3171313019F78E7F97
:101430008860E0CF282F2171213121F78E7E8861CD
:10144000E1CFCF93DF93EC0182389105A9F1D8F574
:101450008133910509F496C048F58932910509F464
:101460008AC08A9709F495C0C11521E5D20708F012
:10147000BCC0C11530E5D30708F014C1C83ED10582
:1014800008F09CC0C13ED10560F5C83AD10508F00E
:1014900087C0C53AD10508F0FDC0C130D10509F1BA
:1014A0002097F9F0C430D105E0F440C085339105B0
:1014B00009F45AC0C997C1F68091F701837089F089
:1014C000C0EED0E00EC0833E910599F170F4803EED
:1014D000910501F1823E910539F68091F70182FD77
:1014E00021C0CE01DF91CF910895863E910561F133
:1014F000873E910571F1843E910509F0B5CF809149
:10150000F80181FFEECF8091F701C7EED0E084FDB6
:101510000DC0E7CF8091F70180FD12C19091F801D5
:1015200090FFDFCFC3EED0E084FFDBCFD0E0C0E0A0
:10153000D8CF8091F70182FD06C19091F80190FD0E
:10154000BFCF84FFCECFF2CF8091F70183FDDDCFF7
:10155000C8CF8091F70183FDF9C09091F80191FF08
:10156000F0CFC4EED0E0BDCF8091F70185FFB9CFB9
:10157000C9E2D0E0B6CF8091F70185FFB2CFC5E3D5
:10158000D0E0AFCF8091F70186FFABCFCAE2D0E0C9
:10159000A8CF8091F70186FFA4CFC1E3D0E0A1CF0F
:1015A000CF3BD10518F6C85AD0E0CC0FDD1FC05E86
:1015B000DE4F0990D881C02DD46493CFC11540E28D
:1015C000D40758F4C11581E0D80708F08ACFCD3E82
:1015D000D10508F4ABCFD06584CFC11590E4D9070D
:1015E00008F4A4CFDF70D06A7CCFC11525E5D207FF
:1015F00000F5C11534E5D30708F08AC0C11543E5ED
:10160000D40708F071C0C11582E5D80708F467C097
:10161000CE018370992721E030E002C0220F331FF2
:101620008A95E2F7C695C69580E2C89FE00111242D
:1016300052C0C11599E5D907A8F4C11528E5D2070C
:1016400008F06BC0C11536E5D30708F06FCF8C2FBB
:101650000E94DE09C82FD0E0DC2FCC27CC27DF7119
:10166000D0623FCFC1154AE5D40708F45BC0CE0174
:1016700090568115904208F059CF8D2F8F710E949E
:10168000DE0990E0982F882788279F719C012C2BDA
:10169000E901E6CFC55AD0E0C35EDE4FC881D0E095
:1016A000D0641FCFCE01E4E096958795EA95E1F7E7
:1016B00083702C2F26952695237040E2249F90015D
:1016C0001124382B8C2F8370C1E0D0E002C0CC0FE6
:1016D000DD1F8A95E2F7C22BD32BDC6802CFDC2F0B
:1016E000CC27C16FD06AFDCECE018370992721E04F
:1016F00030E002C0220F331F8A95E2F7C695C695E7
:1017000090E2C99FE0011124C22BD32BDA68E9CE05
:10171000DC2FCC27C46FD06AE4CEDC2FCC27C06F7F
:10172000D06ADFCE8C2F8F700E94DE0934E0D69510
:10173000C7953A95E1F7CF709C2FEC01D069D1CED7
:10174000C9E3D0E0CECEC2EED0E0CBCEC6EED0E044
:10175000C8CE8091E50181111092E5010895809530
:101760009091E40198239093E4010895E2E9F1E077
:101770009191891303C0DF0111971C9291E0E83920
:10178000F907B1F70895A2E9B1E0EFEF90E02D91EC
:10179000821751F0EF3F19F4211101C0E92F9F5F2B
:1017A0009630A9F7EF3F09F408950E2E000CFF0BB9
:1017B000E057FE4F828308952091E0019091AF01A0
:1017C00056E0291302C080E0089530E0529FF001F6
:1017D000539FF00D1124E055FE4F7181761306C022
:1017E0007081781303C07281741304C02F5F3F4F60
:1017F0002770E7CF81E008958091E0019091AF01DB
:10180000981301C008958F5F8770FACFAF92BF928F
:10181000CF92DF92EF92FF920F931F93CF93DF93BC
:10182000C090F301D090F401E090F501F090F60142
:101830004091E6015091E7016091E8017091E90162
:10184000C42AD52AE62AF72ACFE1D0E0082F10E0F3
:1018500023E0929F000D111D112499E0A92EBC2EAA
:10186000D701C6010C2E04C0B695A795979587950C
:101870000A94D2F780FD0FC0219788F7B12C8B2DE9
:10188000DF91CF911F910F91FF90EF90DF90CF905C
:10189000BF90AF900895AC9EF001AD9EF00D112465
:1018A000E00FF11FEE0FFF1FE958FC4F8591949157
:1018B0000E94210A019701F3E2CFCF93DF93EC015D
:1018C0000E94060CEC2FF0E093E0D99FE00DF11D93
:1018D000112499E0899FE00DF11D1124EE0FFF1FE7
:1018E000E958FC4F85919491DF91CF910C94210A96
:1018F000E92FEE0F9E0F890F982F9770869586958A
:10190000869525E0829FF0011124E156FE4F50E0BC
:1019100040E080E0219130E0092E02C03695279505
:101920000A94E2F721703327042E01C0220F0A9493
:10193000EAF7822B4F5F5F4F4530510559F7089505
:10194000E92FEE0F9E0F890F982F977041E001C08D
:10195000440F9A95EAF786958695869595E0899F36
:10196000F0011124E156FE4F30E020E070E051918B
:10197000DF011197CB01022E02C0969587950A943C
:10198000E2F7817081958527842385278C932F5FCB
:101990003F4F2530310559F70895FC018081918131
:1019A0000E945D0C292F2F7092959F7092509E304F
:1019B00078F4E92FF0E0EC52F14D0C94302E803F9A
:1019C00019F020F4883E20F481E00895843FE1F38B
:1019D00080E00895883EC0F3813FD1F7F5CF822F94
:1019E0008695869586950895829590E09C01220FB4
:1019F000331F220F331F2C7C9595879595958795DE
:101A00008373282B30E0C901880F991F8A7A359596
:101A100027952575822B08959C019A9581159F41E4
:101A200050F4832F817031FD826032FD846033FF7A
:101A300003C08860089580E008959FB7F8941092DD
:101A400051029FBF90916002943009F048C02091EC
:101A5000E9002F703091EC00932F917030FD90E8E9
:101A6000922B25E02093E9002091EB0020FF34C069
:101A70002091EE0027FF30C020915002222321F058
:101A80002091E80025FF28C01092500226E03091F6
:101A9000E80035FF14C08093F1008091E80085FDD7
:101AA00027C08091E80080FFFCCF8091E8008E770E
:101AB0008093E8009F709093E90080E00895309152
:101AC0006002343049F43091EB0035FD05C02150FF
:101AD00041F481E0809350029F709093E9008FEF72
:101AE0000895EFE9FFE03197F1F700C00000CFCF94
:101AF0008FB7F89421E0209351028FBFDBCF809302
:101B00004D0270934F0260934E02809160028430C8
:101B1000F9F48093E9008FEF9091E800815095FDF2
:101B200006C095ED9A95F1F700008111F5CF8091EF
:101B3000E80085FF0DC050E040E063E070E08DE418
:101B400092E00E9476068091E8008E778093E8000C
:101B50000895BC0184E00C947F0DBC0183E00C94DB
:101B60007F0D9C0184E08093E9009FEF8091E80065
:101B7000915085FD06C085ED8A95F1F70000911121
:101B8000F5CF8091E80085FF0CC050E040E066E0B2
:101B900070E0C9010E9476068091E8008E778093FC
:101BA000E8000895CF93DF93EC0181E08093E90092
:101BB0008FEF9091E800815095FD06C095ED9A95C4
:101BC000F1F700008111F5CF8091E80085FF14C086
:101BD00050E040E068E070E0CE010E94760680911F
:101BE000E8008E778093E80088E0FE01A6E5B2E089
:101BF00001900D928A95E1F7DF91CF91089581E0F0
:101C00008093E00080E28093D8001092C9008FE1B9
:101C10009EE40197F1F700C0000087E090EBDC0143
:101C200080936D0290936E02A0936F02B093700246
:101C300088E19CE00FB6F894A895809360000FBEF1
:101C400090936000FFCF10921D0280911B0280FFD5
:101C500008C085E898E09F938F930E941D060F901F
:101C60000F90089580911B0283FF7EC08EE596E061
:101C70000E94840580910E021F928F9389E596E061
:101C80009F938F930E941D0687E596E00E9484052E
:101C900080910F02282F082E000C330B3F938F9357
:101CA00084E596E09F938F930E941D0682E596E05F
:101CB0000E94840580911002282F082E000C330BFF
:101CC0003F938F938FE496E09F938F930E941D061E
:101CD0008DE496E00E94840580911102282F082E41
:101CE000000C330B3F938F938AE496E09F938F937E
:101CF0000E941D0688E496E00E94840580911202ED
:101D0000282F082E000C330B3F938F9385E496E029
:101D10009F938F930E941D0682E496E00E948405A3
:101D2000809108021F928F938FE396E09F938F9389
:101D30000E941D068DE396E00E94840580910702B3
:101D40001F928F938AE396E09F938F930E941D06C4
:101D500087E396E00E9484058DB79EB74C960FB638
:101D6000F8949EBF0FBE8DBF0E94C3079C01909147
:101D70000F0280911002982B21F030930C022093D7
:101D80000B029091110280911202982B21F0309356
:101D90000A0220930902E0914402F0914502309733
:101DA00049F082E080930D020480F581E02D8DE002
:101DB00092E009940895EF92FF920F931F93CF93AF
:101DC000DF938091E4019091E301892B9091E201EE
:101DD000892B809390019091E501992391F0892BB3
:101DE0008093900120E082E991E0FC013191CF01E4
:101DF00031112F5FF1E088399F07B9F721110E9457
:101E0000A90BE0914402F09145023097C9F102809C
:101E1000F381E02D80E991E0099580911B0282FF1A
:101E20002FC080FF04C08AEC93E00E948405C0E9C3
:101E3000D1E088E9E82E81E0F82E04EC13E08091EF
:101E40001B0280FF0BC088811F928F931F930F93FB
:101E50000E941D060F900F900F900F902196EC1688
:101E6000FD0669F780911B0280FF0AC082EC93E0B7
:101E7000DF91CF911F910F91FF90EF900C9484050B
:101E8000DF91CF911F910F91FF90EF90089590E017
:101E900080E00E94E50790E080E00E94CF0710926A
:101EA000E3011092E2010E94DB0E86E0EDE0F2E039
:101EB000DF011D928A95E9F710920802109206023E
:101EC000109207020C94320E6093E6017093E701C2
:101ED0008093E8019093E9010C94470F882341F027
:101EE00080959091E30189238093E3010C94DB0EAC
:101EF0000895882339F09091E301982B9093E301A2
:101F00000C94DB0E0895882321F00E94AF0B0C94F3
:101F1000DB0E0895882339F09091E401982B90937B
:101F2000E4010C94DB0E0895882309F452C0823832
:101F300071F40E94FB0781FF4CC089E30E94C30B30
:101F40000E94DB0E89E30E94B60B0C94DB0E8338F3
:101F500059F40E94FB0780FF3CC083E50E94C30B3D
:101F60000E94DB0E83E5EFCF843859F40E94FB0713
:101F700082FF2FC087E40E94C30B0E94DB0E87E420
:101F8000E2CF9CEF980F913AF0F290E2980F9830E0
:101F900050F4877091E001C0990F8A95EAF7892F74
:101FA0000E94AF0BD2CF9BE5980F933020F490E0C6
:101FB00080E00C94E50798E5980F973120F490E0C5
:101FC00080E00C94CF078D3E20F00E94B2080C9464
:101FD000320E0895CF93C82F882309F490C0823819
:101FE000C1F40E94FB0781FD8AC089E30E94C30BF4
:101FF0000E94DB0E2FEF81EE94E021508040904054
:10200000E1F700C0000089E30E94B60BCF910C9469
:10201000DB0E8338A1F40E94FB0780FD70C083E5CE
:102020000E94C30B0E94DB0E2FEF81EE94E0215043
:1020300080409040E1F700C0000083E5E5CF8438A0
:10204000A1F40E94FB0782FD5AC087E40E94C30BE3
:102050000E94DB0E2FEF81EE94E0215080409040F3
:10206000E1F700C0000087E4CFCF8CEF8C0F813AFE
:1020700068F4E2E9F1E08191C817D9F121E0E8398B
:10208000F207C9F78C2F0E94C30BC0CF80E28C0FE0
:10209000883068F4C77021E030E001C0220FCA9593
:1020A000EAF78091E401822B8093E401AFCFEBE566
:1020B000EC0FE33040F4F0E0E35EFE4F808190E00F
:1020C000CF910C94E507E8E5EC0FE73150F4F0E030
:1020D000EE0FFF1FE05EFE4F80819181CF910C9447
:1020E000CF07CD3E60F08C2F0E946D09CF910C94EC
:1020F000320E8C2F0E94B60B0E94DB0EC3CFCF9105
:1021000008951F93CF93DF93182FD0E0C0E0893359
:1021100011F4C0E5D0E0812F0E94EA0F209731F43E
:10212000812FDF91CF911F910C94940F8FE99FE045
:102130000197F1F700C000002197F0CF0F931F9394
:10214000CF93DF93C62FD42F022FFC0182818823E7
:10215000A1F060936C020E94C30790936B0280937E
:102160006A02C77081E001C0880FCA95EAF7DF9163
:10217000CF911F910F910C948A0F80916C0268137C
:1021800035C080916A0290916B020E94B407803D35
:10219000974060F510E21D0FCD17B9F080E28C0F6B
:1021A000883040F4C77081E001C0880FCA95EAF713
:1021B0000E94830F183048F481E09D2F977001C072
:1021C000880F9A95EAF70E948A0F802F0E9481104B
:1021D000183098F4D77081E001C0880FDA95EAF7DB
:1021E000DF91CF911F910F910C94830FC77081E005
:1021F00001C0880FCA95EAF7F3CFDF91CF911F9105
:102200000F910895EF92FF920F931F93CF938C013C
:102210007C0180EEE81AF108C8010E940C0DC82F5D
:1022200088E0E816F104A8F48C2F0E948A0F802F12
:102230000E94EA0F802F0E94940F88E0E816F104B4
:1022400060F48C2FCF911F910F91FF90EF900C9421
:10225000830F8C2F0E94790FEACF8C2FCF911F9183
:102260000F91FF90EF900C946E0F60913D02669578
:1022700070E04BE050E08EE091E00E94702E892BE0
:1022800019F481E080931D020E94C3079093160207
:102290008093150280911B0280FF08C08CE698E0B5
:1022A0009F938F930E941D060F900F9008955F9249
:1022B0006F927F928F929F92AF92BF92CF92DF9256
:1022C000EF92FF920F931F93CF93DF9300D000D034
:1022D0000F92CDB7DEB780913D0280FD0AC0E2E2E9
:1022E000F2E0118210821282339622E0ED33F2077F
:1022F000C1F780901302909014028114910409F4A4
:1023000057C080FF55C0D12CC12C66246394712C1A
:1023100053E0552E80911E0293010C2C01C0220F18
:102320000A94EAF7822309F43BC0F601EE0FFF1F7F
:10233000E80DF91DE590F490E114F104C9F145E0D0
:1023400050E0B701CE0101960E94672E09810F3F30
:1023500039F18A81800F9927991F8A30910514F0ED
:1023600089E090E05C01AA0CBB1C8A0D9B1DFC015E
:10237000EE5DFD4F5F01059D800111240E5D1D4F37
:102380000A151B0520F0F5E0EF0EF11CD8CF9801DF
:102390004D816C818B810E941C080D5F1F4FF0CF17
:1023A0002FEFC21AD20A38E0C316D10409F0B2CF17
:1023B0006A9A3EB13B7F2EB124604FB7F89482E217
:1023C00092E0FC015191CF0168E02EB9000000C0FD
:1023D00057FF3EB9550F000000C000C000C03EB915
:1023E00000C06A9591F7F2E08D339F0751F74FBF18
:1023F0008FE594E00197F1F700C000000F900F9077
:102400000F900F900F90DF91CF911F910F91FF9040
:10241000EF90DF90CF90BF90AF909F908F907F9084
:102420006F905F900895EF92FF920F931F93CF9359
:10243000DF938C01C2E2D2E0F12CE12CF80194810F
:1024400060913F0280913E02F4E0EF16F104FCF44B
:102450009923F9F09E01409140020E941C082FEF41
:10246000E21AF20A239689E0E816F10439F70E948D
:102470005711F801848190E0019681709927848337
:10248000DF91CF911F910F91FF90EF9008959923C5
:1024900009F39E0140E0E1CF8F929F92AF92BF92ED
:1024A000CF92DF92EF92FF920F931F93CF93DF9320
:1024B000EC014C81042F10E09801D8010E943E2EBF
:1024C0009B01AC010E94542E4B015C01E0E2F0E064
:1024D000E01BF10BA5E5B0E0AC019B010E94542E7E
:1024E0006B017C019F01DF010E94362E9B01AC0134
:1024F0000E945F2E9B01AC01280D391D4A1D5B1DFA
:10250000C701B6010E940E2EF22E822F90E039E212
:102510003F15D8F143E0249F90011124359527956C
:10252000122F109592E2C92E92E0D92E00E085E597
:10253000E82EEF188E2D01FD8F2D9601412F609111
:102540003F020E941C080F5F53E0C50ED11C0930EA
:1025500089F70E9457119C8181E0992319F09032EC
:1025600019F48FEF80931B0180911B01890F8C83DD
:10257000DF91CF911F910F91FF90EF90DF90CF905F
:10258000BF90AF909F908F90089525E530E0A9010E
:10259000481B590BCA019A01220F331F280F391FFC
:1025A00037FFBCCF2F5F3F4FB9CF0F931F93CF9310
:1025B000DF93C2E2D2E0FE011182108212823396D2
:1025C00082E0ED33F807C1F710E000E080912002CF
:1025D000082E000C990B081719078CF180911A012D
:1025E000082E000C990B801791074CF19E01409129
:1025F000400260913F0280913E020E941C080F5FE2
:102600001F4F23960930110509F70E945711809139
:10261000190190912002980F9093200220911A01A5
:10262000280F20931A01121614F498301CF081958B
:1026300080931901DF91CF911F910F910895198215
:1026400018821A82DCCFBF92CF92DF92EF92FF9274
:102650000F931F93CF93DF93FC018281DD24DA94E3
:1026600080FD02C0DD24D39402E212E0D0E0C0E09D
:1026700029E0B22EF80111821082128294E0E92E34
:10268000F12CC12C80911F028C0D8A300CF43DC0BE
:102690006B2D0E94D82D892F082E000C990B8C17BA
:1026A0009D0791F4809140028E9DA0018F9D500D59
:1026B00011245595479555954795980160913F028E
:1026C00080913E020E941C08CD0CF1E0EF1AF10847
:1026D000C9F621960D5F1F4FC930D10559F60E94EA
:1026E000571180911F0291E0D91215C0811111C0BC
:1026F00088E080931F02DF91CF911F910F91FF908F
:10270000EF90DF90CF90BF90089587FFC5CF875F90
:10271000C3CF8150EECF90E00196BE010E94FA2D0A
:10272000E8CFEF92FF921F93CF93DF93EC0182E209
:10273000E82E82E0F82E10E08C8197014091400253
:1027400060913F02810F0E941C08145E83E0E80E36
:10275000F11C1C3F89F70E9457119A818C8190FFD0
:1027600008C08F5F8C83DF91CF911F91FF90EF9016
:1027700008958150F7CF90913D0290FF0CC0E2E2A6
:10278000F2E0818360834283339692E0ED33F90770
:10279000C1F70C94571108950F931F93CF93DF93B4
:1027A00000D00F92CDB7DEB78C018091210281114C
:1027B0000AC09E012F5F3F4F4FEF6FEF0E941C0832
:1027C0008A8180932102F8016481613069F08091EF
:1027D000210240E0662361F040E0623011F4409154
:1027E000210280E060E004C06091210240E080E0CE
:1027F0000E94BB13F801848190E0019663E070E0D1
:102800000E94FA2D84830F900F900F90DF91CF914B
:102810001F910F910895CF93DF9300D00F92CDB702
:10282000DEB790913D0290FF0AC09E012F5F3F4F9F
:102830000E941C084B8169818A810E94BB130F9002
:102840000F900F90DF91CF910895CF93DF93EC011C
:10285000EDE3F2E0438162818C810E940B148C8154
:102860008F5F8C83DF91CF910895CF93DF93EC013D
:10287000EC81F0E0E256F74F4491EDE3F2E0628143
:1028800081810E940B148C818F5F8C83DF91CF91AB
:102890000895CF92DF92EF92FF926B017C010E942C
:1028A0000D08B701A60188E090E0FF90EF90DF905F
:1028B000CF900C94B02E2F923F924F925F926F92D6
:1028C0007F928F929F92AF92BF92CF92DF92EF92C0
:1028D000FF920F931F93CF93DF9300D000D000D0CF
:1028E000CDB7DEB7582E262E342E2E8390913D0282
:1028F00090FF47C0E92FE695AE2FB0E0AC5ABE4F2F
:102900008C9180931C029E7F923009F053C09E01EF
:102910002F5F3F4F852D0E941C084B8169818A8162
:102920000E94BB1350923E0220923F02309240021E
:102930008E81882309F49FC060913D0270913E0210
:1029400080913F02909140020E94491480911B02A5
:1029500080FF17C0809140021F928F9380913F02A9
:102960001F928F9380913E021F928F938BE198E08C
:102970009F938F930E941D060FB6F894DEBF0FBE83
:10298000CDBF26960FB6F894DEBF0FBECDBFDF9148
:10299000CF911F910F91FF90EF90DF90CF90BF905C
:1029A000AF909F908F907F906F905F904F903F90EF
:1029B0002F900895823019F430904002B3CF8630C2
:1029C00019F450903E02AECF8930D9F3893109F025
:1029D000A9CFE9518E2F81708C838E2F80958170C5
:1029E0008D83E695F0E0E959F74FE590F490FF24E8
:1029F00082E2C82E82E0D82EB12CA12C10E000E09B
:102A000099E0692E712C20E4822E28E0922EC501D7
:102A1000B3010E94E62D9C81452C91112AC0460EDF
:102A200080911B0280FF12C0FF92EF921F928D8156
:102A30008F931F924F921F930F939F928F920E949A
:102A40001D060FB6F894DEBF0FBECDBF9601432D15
:102A5000622D842D0E941C080F5F1F4FAE0CBF1CFF
:102A600093E0C90ED11C0930110589F60E94571157
:102A700059CF461AD5CF80911B0280FF82CF1F927B
:102A80003F921F922F921F925F9284EF97E070CF38
:102A9000EDE3F2E0438128E0421B08F440E021E04E
:102AA000628181810C945B14EDE3F2E0438128E0C4
:102AB000420F08F44FEF21E0628181810C945B1496
:102AC000EDE3F2E0628128E0621B08F460E021E0BF
:102AD000438181810C945B14EDE3F2E0628128E094
:102AE000620F08F46FEF21E0438181810C945B1445
:102AF000EDE3F2E0818121E04381628188500C9412
:102B00005B14EDE3F2E0818121E043816281885F23
:102B10000C945B1480914102882319F081508093BA
:102B2000410260913D0270913E0280913F0290917E
:102B300040020C94491480914102833018F48F5F55
:102B40008093410260913D0270913E0280913F026C
:102B5000909140020C94491490913D0290FF55C011
:102B6000917081113CC0926090933D026623F1F117
:102B700060913D0270913E0280913F02909140022F
:102B80000E94491480911B0280FF0FC080913D027A
:102B900086951F928F938FE997E09F938F930E9462
:102BA0001D060F900F900F900F9060913D0266955B
:102BB00070E04BE050E08EE091E00E94702E892B97
:102BC00009F10E94230E81E08093180220E04091D9
:102BD000400260913F0280913E020C945B1485326A
:102BE00010F09864C1CF880F982BBECF80911B0244
:102BF00080FFDBCF80913D0286951F928F9381E805
:102C000097E0CBCF0E943511DECF089521E030E070
:102C1000A90102C0440F551F8A95E2F7CA0120910D
:102C20001E02662369F0822B80931E0280911D0292
:102C3000811109C080913D0260E086950C94AC152D
:102C400080958223F1CF0895CF92DF92EF92FF9289
:102C50000F931F936B017C01A7016627772780E103
:102C6000411551056105710519F4B701A60180E010
:102C7000052F162F272F33270115110521053105A3
:102C800019F0885FB901A8018A019B01F4E036952B
:102C9000279517950795FA95D1F701151105210587
:102CA000310519F08C5FB901A8018A019B01E2E0AE
:102CB0003695279517950795EA95D1F701151105D2
:102CC0002105310519F08E5FB901A8017695679548
:102CD00057954795452B462B472B09F08F5F813041
:102CE00051F1882359F0823079F1C701B6011F9163
:102CF0000F91FF90EF90DF90CF90089583EE91E0D9
:102D00000E94840520E041E960E58CE30E945B14A9
:102D100080910D0161E0811101C060E080E00E94BE
:102D2000061680910C0161E0811101C060E081E034
:102D30000E940616DACF87ED91E00E94840520E01C
:102D40004DEE68ED80E9E2CF89EC91E00E948405C8
:102D500020E04FE76FEF85E5D9CF0E9424166093FE
:102D6000F3017093F4018093F5019093F6010C94B4
:102D7000470F0F931F9341E050E060E070E004C004
:102D8000440F551F661F771F8A95D2F7CB01BA01F2
:102D900060957095809590950091F3011091F401E4
:102DA0002091F5013091F601602371238223932352
:102DB0001F910F910C94AD169091E101809589239C
:102DC0008093E101282F277091F4282F082E000C02
:102DD000330B9217130659F09091F80192FD07C03A
:102DE0008595859585950E94B9161092E101089503
:102DF0000F931F9341E050E060E070E004C0440F87
:102E0000551F661F771F8A95D2F78091F301909125
:102E1000F401A091F501B091F6018A019B01082B04
:102E2000192B2A2B3B2BC901B8011F910F910C9430
:102E3000AD1680913D02816080933D0280911B021E
:102E400080FF0DC01F9281E08F938BEB97E09F93E3
:102E50008F930E941D060F900F900F900F908091FE
:102E60003D0260E086950C94AC1580913D028695FC
:102E7000815009F484E261E00C94AC1580913D022C
:102E800086958F5F853208F081E061E00C94AC1587
:102E900090913D0290FF07C09695981720F09617E5
:102EA00010F40C943E1761E00C94AC15EDE3F2E0E5
:102EB00083E0808311828FEF828383831482608119
:102EC0007181828193810C944914CF93DF93D82F21
:102ED000C091F801C2FB882780F98D1711F1D0FB52
:102EE000C2F9C093F8016091F70184E090E00E947C
:102EF0009E2E6C2F82E290E00E949E2E82E00E9425
:102F0000DC1680911B0280FF0CC01F92DF938DEABC
:102F100093E09F938F930E941D060F900F900F9048
:102F20000F90DF91CF9108951092E401E2E9F1E072
:102F300086E0DF011D928A95E9F70C94470F1F93F5
:102F4000CF93DF93CDB7DEB7AA970FB6F894DEBF65
:102F50000FBECDBF82E692E02091F100DC012D93FF
:102F6000CD01B2E08A369B07B9F7809163028330C6
:102F700009F472C0B8F4813009F449C0823009F410
:102F8000B3C08091E80083FF91C28091620290916A
:102F900063029A3008F08AC2E92FF0E0EE51F14D59
:102FA0000C94302E8A3009F48EC08B3009F471C035
:102FB000893039F780916202813219F78091660277
:102FC00090916702009711F00297D9F68091E8007E
:102FD000877F8093E8008091E80082FF38C090915D
:102FE000F3008091F200029731F48091F10081307A
:102FF00011F0863021F48091F10080935502809188
:10300000E8008B778093E8000E94A006BACF8091F9
:103010006202813A09F0B5CF8091E800877F809302
:10302000E8008091660290916702892B61F468E064
:1030300086E592E070E00E9452078091E8008B776D
:103040008093E8009ECF60E090E080E0F3CF809135
:1030500060028111C0CF95CF80916202813A09F060
:1030600090CF8091660290916702892B09F089CFF9
:103070008091E800877F8093E8008091E80080FFDE
:10308000FCCF80911C018093F1008091E8008E7745
:10309000B9CF80916202813209F073CF80916602CC
:1030A00090916702892B09F06CCF8091E800877FAF
:1030B0008093E8000E94A0068091640280931C0126
:1030C0000E9494175ECF80916202813209F059CF3D
:1030D0008091E800877F8093E8000E94A00680919D
:1030E0006502809354024DCF80916202813A09F0CB
:1030F00048CF8091E800877F8093E8008091E800C6
:1031000080FFFCCF80915402BECF803899F0823886
:1031100009F0CCC1809166028F70873008F0C6C17B
:103120008093E9008091EB0085FB882780F910925D
:10313000E90006C080915E0290915F029111826069
:103140009091E800977F9093E8008093F1001092AF
:10315000F1008091E8008E77A5C1882309F493C11E
:10316000823009F0A3C180916402811196C18091DF
:1031700066028F702FEF280F263008F097C18093DA
:10318000E9002091EB0020FF88C1933031F4809159
:10319000EB0080628093EB0080C19091EB00906126
:1031A0009093EB0021E030E001C0220F8A95EAF70E
:1031B0002093EA001092EA008091EB008860EACF49
:1031C000811174C1109164021F778091E3008078AF
:1031D000812B8093E3008091E800877F8093E80053
:1031E0000E94A0068091E80080FFFCCF8091E30060
:1031F00080688093E30082E0111183E08093600295
:1032000055C18058823008F051C12091640230913C
:1032100065022C3DE3E03E07A1F583E08A838AE264
:1032200089834FB7F894DE01139620E03EE051E227
:10323000E32FF0E050935700E49120FF03C0E295A4
:10324000EF703F5FEF708E2F90E0EA30C0F0C796CE
:103250008D939D932F5F243159F74FBF8091E800E4
:10326000877F8093E8006AE270E0CE0101960E94B9
:1032700052078091E8008B778093E80017C1C096D1
:10328000E7CF8091660290916702432F5527433024
:10329000510509F44AC078F54130510509F47AC066
:1032A0008BE790E0E2EBF9E04230510509F0FEC017
:1032B0002091E800277F2093E80020916802309158
:1032C00069028217930708F49C0140E0211531053B
:1032D00009F065C0411163C08091E80082FDC9CF4B
:1032E00080916002882329F2853019F28091E800EC
:1032F00083FFF2CFBECF4132510509F43CC04232C8
:10330000510509F0D3C08430910508F0CFC0FC010D
:10331000EE0FFF1FE358FE4F0190F081E02D87581C
:103320009E4FDC018C9190E01AC03327213031058B
:10333000D1F02115310561F02230310509F0B6C018
:10334000EFE3FAE0E4918E2F90E0EFE3FAE007C0BC
:10335000E9E5FAE0E4918E2F90E0E9E5FAE00097E4
:1033600009F4A4C0A5CFEDE4FAE0E4918E2F90E03B
:10337000EDE4FAE0F4CF8430910508F097C0880FAF
:10338000991FFC01EB57FE4F0190F081E02D89E081
:1033900090E08ECF82E190E0EDE2FAE089CF80917B
:1033A0006002882309F465CF853009F462CF8091EB
:1033B000E80083FD5ECF8091E80082FD8DCF809193
:1033C000E80080FF83CF9091F3008091F2002115F7
:1033D000310519F08830910550F041E0089709F067
:1033E00040E08091E8008E778093E8006FCF4491B1
:1033F0004093F1003196215031090196E8CF803891
:1034000009F054C08091E800877F8093E8008091A4
:1034100061028093F1009DCE811148C01091640239
:10342000123008F043C08091E800877F8093E80065
:10343000109361020E94A006112311F084E005C0E0
:103440008091E30087FDFACF81E08093600242E043
:1034500061EC81E00E94BF0642E261EC84E00E94E0
:10346000BF0642E261EC82E00E94BF0642E260ECED
:1034700083E00E94BF0642E261EC85E00E94BF0645
:103480008091600213C080916402813079F481E000
:10349000933009F080E080935F021092E900809100
:1034A000E800877F8093E8000E94A0068091E800F2
:1034B00083FF0AC08091E800877F8093E8008091B5
:1034C000EB0080628093EB00AA960FB6F894DEBF03
:1034D0000FBECDBFDF91CF911F910895CF9384E0B0
:1034E00090E00E948A2EC82F82E290E00E948A2EED
:1034F000982F8C2FCF91089569EE7EEF90E080E0B9
:103500000E94BC2E60E082E090E00E949E2E60E06F
:1035100083E090E00E949E2E1092E6011092E70157
:103520001092E8011092E90160E084E090E00E94CE
:103530009E2E60E082E290E00E949E2E60E085E098
:1035400090E00E949E2E60E086E090E00E949E2E19
:103550006FEF87E090E00E949E2E40E050E0BA01BD
:1035600088E090E00E94B02E60E08DE090E00E9444
:103570009E2E40E050E0BA0188E190E00E94B02E1B
:1035800060E087E190E00E949E2E40E050E0BA01AA
:103590008CE190E00E94B02E70E060E080E290E06C
:1035A0000E94BC2E40E050E0BA0188E190E00E9409
:1035B000B02E40E050E0BA018FE090E00E94B02EC3
:1035C00040E050E0BA0183E190E00C94B02E6F929D
:1035D0007F929F92AF92BF92CF92DF92EF92FF9233
:1035E0000F931F93CF93DF9300D00F92CDB7DEB729
:1035F00019821A821B820EE411E091E5E92E91E016
:10360000F92E99249394CC24C394D12C34E5A32E81
:1036100031E0B32EF80181918F018F3F09F448C04A
:10362000F894E82FE295EF70F0E021A18F70A601E9
:1036300002C0440F551F8A95E2F7CA01922F982BBA
:1036400091A392A18095892382A3789400C081E5FB
:10365000682E81E0782EDE011196692D6095F301C8
:1036600091913F018D919D01215031099F3F09F4B6
:103670005CC0492F42954F7050E0FA0140A150E0E4
:103680009F7002C0559547959A95E2F740FD4DC051
:103690008929F9018083A614B70409F7F801319745
:1036A00080818F3F11F00E94C709F0EAFA95F1F787
:1036B000990CE016F10609F0ADCF43E050E0BE01F1
:1036C0006F5F7F4F89EF91E00E947D2E11E00097A0
:1036D00009F410E0892B59F189819A81AB8180939B
:1036E000F9019093FA01A093FB0181E08093EC0132
:1036F0000E94C3079093EB018093EA018091EA0155
:103700009091EB010E94B4070597A8F08091F90110
:103710008093FF018091FA01809300028091FB0168
:10372000809301021092EC0106C08623B2CF8091F3
:10373000EC018111E3CF8091F201882399F080910F
:10374000F0019091F1010E94B4078D3D954050F039
:1037500088EE93E00E94840586E19AE00E940211BF
:103760001092F2018091EF01882399F08091ED0190
:103770009091EE010E94B4078D3D954050F08CED84
:1037800093E00E94840586E196E00E940211109267
:10379000EF01812F0F900F900F90DF91CF911F912C
:1037A0000F91FF90EF90DF90CF90BF90AF909F90E0
:1037B0007F906F9008954F925F926F927F928F9259
:1037C0009F92AF92BF92CF92DF92EF92FF920F93B0
:1037D0001F93CF93DF9300D000D00F92CDB7DEB709
:1037E0007C01DC0113968D919C911497892B41F0FB
:1037F0001C911196DC90812F8D218F3F09F055C7C8
:103800000F900F900F900F900F90DF91CF911F911D
:103810000F91FF90EF90DF90CF90BF90AF909F906F
:103820008F907F906F905F904F9008950E94060C4C
:10383000082F682F89819A810E94A00CE12FF0E067
:10384000B3E0DB9EE00DF11D112429E0029FE00DA5
:10385000F11D1124EE0FFF1FE958FC4F0591149143
:10386000F801E65AFD45EB31F10508F04BC2E45191
:10387000F14DD70112968C910C94302E81110FC00E
:1038800080910D01811158C081E080930D0161E0AC
:1038900080E00E94061684E09AE00E940211F7017F
:1038A0008281882309F414C710926C020430FDE56C
:1038B0001F0708F09BC20B3F2CE5120730F4C8012C
:1038C00082509C45449708F096C20E946E1A9093CD
:1038D000F8018093F70100318CE5180709F45CC307
:1038E00008F0D8C20830ACE51A0709F447C308F05D
:1038F000A7C20430ECE51E0709F42EC308F090C2FD
:1039000002302CE5120709F421C38091F70182608F
:1039100003301C4509F41DC36091F7011091F801B3
:1039200084E090E00E949E2E612F82E290E00E944F
:103930009E2E0E94941723C010920D0160E0A8CF24
:103940008111ADCF80910C01811109C081E080937C
:103950000C0161E00E94061689E19AE09ECF109268
:103960000C0160E081E0F6CF882381F10E94C3075B
:103970009093F1018093F00181E08093F2018091B6
:10398000E101877009F43CCFD70112968C9188230E
:1039900009F436CF8091F80182FD32CF82E00F909A
:1039A0000F900F900F900F90DF91CF911F910F917B
:1039B000FF90EF90DF90CF90BF90AF909F908F904F
:1039C0007F906F905F904F900C94DC161092F201F4
:1039D000D6CF811164CF8AE19AE05FCF81115FCFAA
:1039E00083E191E05ACF81115ACF81E191E055CF27
:1039F000882321F081E080939D0151CF80919D012A
:103A0000882321F089E09AE00E94021110929D0122
:103A100046CF811144CF80919D018111F7CF8091D4
:103A20009C0181110AC081E080939C0161E082E0E9
:103A30000E9406168BE09AE0E7CF10929C0160E0AE
:103A4000F6CF882361F080919D01882309F427CF68
:103A500062E070E080E090E00E94AD16D7CF8091E8
:103A6000F3019091F401A091F501B091F601009756
:103A7000A105B10511F080FF12CF60EAC62E62E009
:103A8000D62E7AE0472EF6012491222309F407CF9F
:103A9000213009F048C031968491813041F4F2E040
:103AA000CF0ED11CF60184910E94811009C0823092
:103AB00059F4F2E0CF0ED11CF60184910E94EA0F76
:103AC0003FEFC31AD30ADFCF833041F4F2E0CF0EC9
:103AD000D11CF60184910E94940FF2CF843009F03A
:103AE00074C0F2E0CF0ED11CF601249190E080E08A
:103AF000F60131962053330B2A30310548F00197F7
:103B0000F8F2AFE9BFE01197F1F700C00000F7CF7E
:103B1000489EA001499E500D1124C901840F951F94
:103B200024916F01E5CFE22FF0E0E05EFD4F54906D
:103B3000822F86958695869590E0FC01E05FFD4F8B
:103B400064902770712C022E02C0759467940A94B9
:103B5000E2F7E1E06E227724FC01E050FE4F849012
:103B6000912C022E02C0959487940A94E2F7F1E01A
:103B70008F229924FC01E051FE4FA490B12C02C089
:103B8000B594A7942A95E2F721E0A222BB24611400
:103B9000710419F081EE0E94EA0F8114910419F06A
:103BA00086EE0E94EA0F852D0E948110892819F067
:103BB00086EE0E94940F672819F081EE0E94940F00
:103BC000AB2809F47DCF8CE26FCF6F0179CF8111E3
:103BD00066CE80910D0181110AC081E080930D01B4
:103BE00061E080E00E94061684E094E056CE1092D8
:103BF0000D0160E0F6CF811152CE80910C01811150
:103C000009C081E080930C0161E00E94061689E101
:103C100094E043CE10920C0160E081E0F6CF88235F
:103C200009F43DCE81E08093EF010E94C307909399
:103C3000EE018093ED0133CE811131CE8BE394E020
:103C40002CCE81112CCE8EE40E94811028CE8111C1
:103C500026CE8BE490E021CE882321F081E0809372
:103C60009B011DCE80919B01882321F089E094E087
:103C70000E94021110929B0112CE90919B01882309
:103C800051F0992309F40BCE61E070E080E090E000
:103C90000E94AD16AFCE9111EDCF80919A018111A6
:103CA0000CC081E080939A0180939C0161E082E0E6
:103CB0000E9406168BE094E0DBCF10929A011092DE
:103CC0009C0160E0F4CF882309F4E9CD80919B0149
:103CD000882309F4E4CD64E070E080E090E00E9485
:103CE000AD16DDCD882321F081E080939901D7CDF9
:103CF00010929901D4CD8823F9F081E08093980146
:103D000080939B01043FBCE51B0709F460C008F0E9
:103D100049C0093DFCE51F0709F455C00A3D2CE5E3
:103D2000120709F460C0083D3CE5130709F0B7CD60
:103D300026E241EE61EE43C010929801E3CF882362
:103D400009F4ADCD80919801882309F4A8CD62E0F3
:103D500070E080E090E00E94AD1680CF882309F4E7
:103D60009ECD80919901882309F499CD8091980185
:103D7000882309F494CD20E04FEF60E080E00E94BA
:103D80005B1460E081E00E94AC150E9494178FEFF5
:103D900094E3ACE081509040A040E1F700C0000007
:103DA0000E94FF0D063F8CE51807C9F0A0F027E23E
:103DB00045EE66EE073FACE51A0709F070CDC70186
:103DC0000E949E10DCCD27E245EE65EEF8CF26E29C
:103DD00041EE60EEF4CF27E245EE64EEF0CF26E24E
:103DE00041EE62EEECCF28E241E0EFCF02363DE556
:103DF000130709F46ACD8091E40106319CE51907A7
:103E000009F071C48A7A91E009F490E090939E01E0
:103E10008111E7C089E20E94C30B0E94DB0EAFCD87
:103E200006308CE5180709F4A5C08091F701886079
:103E300007301C4508F48DC08091F701806289C06D
:103E40008091F7018D7F0C30ACE51A0709F481C031
:103E500070F48091F7018C600A30ECE51E0709F4DC
:103E600078C008F48FC08091F7018E7F72C0809176
:103E7000F701877F0E302CE5120709F46AC08091A4
:103E8000F7018B7F0F301C4508F463C08091F70168
:103E90008F7E5FC00D3F8CE5180709F479C068F587
:103EA0000431ACE51A0709F48BC080F40231ECE56B
:103EB0001E0709F475C08091F7018F7B03311C4503
:103EC00008F447C08091F701837F43C00B3F2CE586
:103ED000120709F445C008F049C005311C4509F036
:103EE0001BCD8091F70182FB992790F921E0922761
:103EF00090FB82F990FB83F92CC001309DE51907F6
:103F000009F454C088F48091F80183600F3FBCE548
:103F10001B0749F18091F8018D7F01151D4518F1AE
:103F20008091F8018C7F1FC00330FDE51F0709F465
:103F300056C008F44EC002361D4509F0EDCC9091F4
:103F4000F701892F8F7E94FF806103C08091F70174
:103F500081608093F701E0CC8091F7018460F9CF14
:103F60008091F80181608093F801D6CC8091F801AE
:103F70008260F9CF8091F7018061EBCF8091F701EA
:103F80008064E7CF0E9494178091F7018068E1CFA9
:103F90008091F8018E7FE7CF8091F7018F7DD9CF97
:103FA0000E9494178091F7018F77D3CF8091F80109
:103FB000982F909591708E7F892B90FB81F9D3CFAC
:103FC0000E9494179091F701892F97FB87F98058E9
:103FD000C0CF61E08EE090E00E949E2E9DCC60E01C
:103FE000F9CF85E318CF85E37BC380911B0280FF67
:103FF00010C080913D02809581701F928F938DE15A
:1040000093E09F938F930E941D060F900F900F9047
:104010000F9080913D0280FF2EC08E7F80933D02E5
:1040200060913D0270913E0280913F02909140026A
:104030000E94491480911B0280FF0FC080913D02B5
:1040400081701F928F938EEA92E09F938F930E94CC
:104050001D060F900F900F900F900E94230EAFEF50
:10406000B0E7E2E0A150B040E040E1F700C000005E
:104070000E94571184CC816080933D0280911B0285
:1040800080FF0DC01F9281E08F9386EE92E09F9398
:104090008F930E941D060F900F900F900F908091AC
:1040A0003D0261E086950E94AC1569CC45E357E17D
:1040B0006EE377E10E94070862CC4EE357E165E3C7
:1040C00077E1F8CF41E855E168E775E1F3CF40E6E5
:1040D00055E16CE675E1EECF48E455E164E575E144
:1040E000E9CF44E555E168E475E1E4CF4BE955E1FA
:1040F0006AE875E1DFCF61E081E0D5CF65E082E07D
:104100000E9448173CCC68E086E0FACF64E18FE07B
:10411000F7CF67E185E1F4CF62E289E1F1CF61E0B9
:1041200083E2C1CF0C359DE5190791F10D351007DC
:1041300029F10B351D4509F001C381E026C00E941D
:104140009417EFEFF4E32CE0E150F0402040E1F76A
:1041500025CE90911B02892F8E7F90FF81608093E6
:104160001B0280FF05C086E693E00E94840507CC11
:1041700084E593E0FACF0E947C1A01CC8091F8018B
:1041800082FB882780F991E089270E946517D6C2B3
:1041900080E0FBCF812F902F0E94780CD82EDFC2B9
:1041A000E12FEF70CE2E107F19F0C29420EFC222C3
:1041B000DD20B9F0CC2069F080E2800F883010F06B
:1041C000811009C08091E401C82AC092E4010E94D4
:1041D000DB0E802F4BC08091E301C82AC092E3011F
:1041E000F6CF802F0E94940FCC2009F441C0005ECE
:1041F000083010F0811004C08C2D0E94AF0B06C057
:10420000C0948091E301C822C092E3010E94DB0EBA
:104210002FC0F12FFF70CF2E107F103219F0C294F3
:1042200090EFC922882089F021E0821609F488C025
:10423000DD2009F492C0992009F488C0F701858136
:1042400080FFC7CF8F70858381C02091F80122FF46
:1042500054C0DD2009F44AC0CC2039F08091E4013B
:10426000C82AC092E4010E94DB0E80E00E94EA0F9F
:10427000AA2DA850BB0B149710F40E94FB07BB207B
:10428000A9F08091E10180FD11C0F70112828595AE
:10429000859585950E94F816C7010E94DB1B8091C9
:1042A000E1018595859585950E94B91685E0F70110
:1042B000DE01119601900D928A95E1F789819A812C
:1042C0000E94780C9A81E981F0E023E0929FE00D52
:1042D000F11D112439E0839FE00DF11D1124EE0F33
:1042E000FF1FE958FC4F859194918ACA80E00E9493
:1042F000940FCC2009F4BCCF7FCFDD20A1F09091AA
:10430000E5018C2D892B911003C00E948A0FB0CF3C
:1043100031E09312FACF22FDABCF981709F4A8CF62
:104320008093E501A5CF911006C00E94A90B8C2DAA
:104330000E94830F9DCF81E0981609F499CFF5CFA5
:10434000DD2031F095E0991508F492CF8C2DDDCF6A
:10435000A4E0A91508F48CCFEACF992041F3F9E342
:104360008F1209C02FEF37EE83E02150304080409C
:10437000E1F700C00000802F0E94940F79CF812FB9
:1043800086958695837061F0813009F071CFC80100
:104390009370D11002C090E080E00E94CF0768CFF8
:1043A000C8019370D11002C090E080E00E94E50740
:1043B0005FCF802FDD2029F00E946D090E94320E10
:1043C00057CF0E94B208FACF812F837009F066C0E0
:1043D000D1104ECF802F829586958770880F880FD9
:1043E000602F6F70462E512C712C612C082E04C04A
:1043F000440C551C661C771C0A94D2F740E050E030
:10440000BA0104FF0FC04FE050E060E070E004C06C
:10441000440F551F661F771F8A95D2F74095509518
:1044200060957095812F869586958370823019F1FD
:10443000D8F40091E6011091E7012091E801309154
:10444000E901813069F04429552966297729CB0192
:10445000BA0160237123822393230E94640F08CF43
:10446000402A512A622A732ACB01BA01642975298C
:1044700086299729F2CF4429552966297729009161
:10448000E6011091E7012091E8013091E901CB01AB
:10449000BA016027712782279327DFCF8695DD2019
:1044A00011F0812F8170882309F4E2CE802F82954C
:1044B00086958770880F880F602F6F70462E512C5D
:1044C000712C612C082E04C0440C551C661C771CF2
:1044D0000A94D2F740E050E0BA0104FF0FC04FE069
:1044E00050E060E070E004C0440F551F661F771F66
:1044F0008A95D2F74095509560957095812F869555
:1045000086958370823019F1D8F40091F3011091EF
:10451000F4012091F5013091F601813069F04429D0
:10452000552966297729CB01BA016023712382239B
:1045300093230E94AD169CCE402A512A622A732AE8
:10454000CB01BA016429752986299729F2CF44291C
:104550005529662977290091F3011091F4012091E2
:10456000F5013091F601CB01BA016027712782274E
:104570009327DFCF1F70DD2029F0812F0E94F816CE
:10458000802FC3CE802F0E94830F812F0E94B916E7
:104590006FCE802F92EF891609F43FC0981570F006
:1045A000A0EF8A16D1F0B1EF8B1691F0DD2009F45F
:1045B0006CC091100ECE812F8F7133C0E3EF8E1639
:1045C00099F1F4EF8F12F2CF8091F80182FF3FC092
:1045D000812F8F71DD20D1F224C0DD20C9F024E0CD
:1045E000291508F445CE1F7161E070E080E090E08D
:1045F00004C0660F771F881F991F1A95D2F7009184
:10460000F3011091F4012091F5013091F601ADCF45
:1046100035E0391508F42CCEE6CF812F8F71D110FB
:10462000B5CF0E94F81624CE60E070E0CB01DD200B
:1046300009F47FCF1F7161E070E080E090E004C07A
:10464000660F771F881F991F1A95D2F772CFDD204A
:1046500089F01F71812F0E94F8168091F80182FD68
:1046600007C0A8E01A9FC001112483608093E10174
:10467000812FD7CF81E00E94DC16B1E0B91508F098
:10468000F7CD82E00E94DC16F3CD992059F08933F2
:1046900009F071CEEFEFF7EE23E0E150F04020405B
:1046A000E1F767CE812F8F7171CF85E0F701DE01D1
:1046B000119601900D928A95E1F7D70112962C91EF
:1046C00089819A812111B2C80E94780C082FB6C83E
:1046D00006311C4599F580919E01811184CC89E2B7
:1046E0000E94B60B9ACB82720D3CECE51E0709F4D2
:1046F000FDCC08F0B1C0073C2CE5120709F4E2CC70
:1047000008F086C0043C9CE5190709F4CFCC08F0FA
:1047100070C0033CBCE51B0709F467CC0F3DFCE50A
:104720001F0709F428CD08F0FDCC01153CE513075F
:1047300009F405CD01301C4509F40BCDF701828148
:1047400010810181882309F425CD812F902F0E94AB
:10475000060CD82E682F812F902F0E94A00CE12FDD
:10476000F0E023E0029FE00DF11D112439E0D39E1B
:10477000E00DF11D1124EE0FFF1FE958FC4F85914C
:1047800094910E94210A8C01882ED7011296DC9008
:10479000129715969C9092945FE095228091E1018A
:1047A0008770C1F0BD2CDD20B1F0812F807F803477
:1047B00021F080E2800F883068F08091F80182FD5E
:1047C00009C082E00E94DC168091E1018770BB2461
:1047D000B3948111B12CA12EA2943FE0A322BBE09F
:1047E000BA1508F445CDEA2DF0E0E95FF04D0C94E0
:1047F000302E053CECE51E0709F45FCC48E755E197
:1048000061E875E1063CFCE51F0709F453CC86CF4F
:104810000A3C2CE5120709F45FCC78F4083C9CE5CF
:10482000190709F454CC4CE655E160E675E1093C02
:10483000ACE51A0709F43ECC71CF0B3CBCE51B0775
:1048400009F44FCC4AE855E16BE975E10C3CECE525
:104850001E0709F42FCC62CF023DFCE51F0709F4C7
:1048600055CCA0F40F3C3CE5130709F447CC08F401
:1048700042CC003D9CE5190709F445CC6EE089E087
:10488000013DACE51A0709F43BCC48CF053DBCE53A
:104890001B0709F441CC68F4033DFCE51F0709F44C
:1048A00038CC61E088E1043D2CE5120709F4FBCB2C
:1048B00035CF063D3CE5130709F431CC0E358DE5C7
:1048C000180709F45CC82ACF1F93CF93DF93809118
:1048D000AE01807FA9F48091AB01882389F080919B
:1048E000E001D091AF016091A9017091AA01A0915E
:1048F000AC01B091AD01C62FC72316E0D81304C098
:10490000DF91CF911F91089590E0109711F0CF3F64
:1049100019F401968770F2CF189F9001199F300DFE
:104920001124F901E055FE4F41814713F2CF408138
:104930004613EFCF42814111ECCF438154814A1B92
:104940005B0B403D574028F78091AE018F7080612E
:104950008093AE01F901EB54FE4F80818F7080612E
:10496000808389EA91E00E94DB1BDF91CF911F9148
:104970000C94FC0B8F929F92AF92BF92CF92DF92DA
:10498000EF92FF920F931F93CF93DF93CDB7DEB7D4
:1049900061970FB6F894DEBF0FBECDBF8C0185E0E6
:1049A000F801DE011D9601900D928A95E1F7D8017C
:1049B0001296EC90129789EA882E81E0982E409109
:1049C000AC015091AD014115510509F43FC19091E1
:1049D000A9012091AA01892F82238F3F09F436C1B2
:1049E000DC901196CC9011971396AD90BC901497D3
:1049F000F090AB01F501E41BF50BAF01FF2009F4CA
:104A0000F9C08091AE01382F307F403D574008F00B
:104A1000C5C0311185C0FE2C2C1124C09D1122C0AF
:104A2000E11020C08F7080618093AE01C4010E94AC
:104A3000DB1B8091AE01D80115968C938F2D61966A
:104A40000FB6F894DEBF0FBECDBFDF91CF911F919F
:104A50000F91FF90EF90DF90CF90BF90AF909F901D
:104A60008F900895A114B10429F08D2D8C218F3FD2
:104A700009F00AC180E080FF14C04E2D6C2D8D2DF1
:104A80000E94DC0B882369F089EA91E00E94DB1B1D
:104A900086E0E9EAF1E0DF011D928A95E9F7F12C61
:104AA000CDCFAB2829F08D2D8C218F3F09F0E9C0A7
:104AB00080E0B82FB170AB2E80FF29C04E2D6C2D39
:104AC0008D2D0E94DC0BB82E811121C0DD86CE8693
:104AD0008D859E850E945D0C292F22952F70223096
:104AE00050F0243078F49F7051F0F8019581907F58
:104AF00031F4FB2CA3CF9F7011F08823D1F3805E9B
:104B00008830B8F3C8010E94DB1BBA2CF2CFEE202C
:104B100009F494CF8091AE0181608093AE01BFCF44
:104B20002C1112C09D1110C0E1100EC015968C936F
:104B3000C8010E94DB1B86E0F801A9EAB1E0019000
:104B40000D928A95E1F77ACFC8010E94CD0C882397
:104B500009F1EE20F9F08091AE01803270F02091E1
:104B6000A9013091AA0138872F831986BB86AA86AE
:104B70008C87CE0107960E94DB1B86E0F801A9EA2C
:104B8000B1E001900D928A95E1F70E946424FF2420
:104B9000F39454CFC8010E94DB1BF9CF332309F4EF
:104BA00073CF2C110FC09D110DC0E1100BC0F80187
:104BB0008583C8010E94DB1B86E0D4011D928A9583
:104BC000E9F73CCFC8010E94CD0C882319F3EE20F1
:104BD00009F38091AE01803280F22091A9013091D9
:104BE000AA013A8329831B82BD82AC828E83CE01C7
:104BF0000196C1CFE03DF740F8F6FE2CEE2051F2D1
:104C00002C1116C09D1114C08091AE0180FD93CF70
:104C1000982F907F09F48FCFF8018583903F09F496
:104C200087CF982F907F905F8F70892B858380CF5F
:104C3000C8010E94CD0C8111A0CF8091AE0181608E
:104C40008093AE01C8010E94DB1BF8CEEE2009F470
:104C5000A1CFC8010E94CD0CF82E882309F49ACF69
:104C600086E0F801A9EAB1E001900D928A95E1F79A
:104C70008091A9019091AA010E945D0C0E94642478
:104C8000DDCE81E08E2515CF81E08E25F4CE1F93F9
:104C9000CF93DF93CDB7DEB767970FB6F894DEBF3B
:104CA0000FBECDBF4B8B5C8B6D8B7E8B8F8B611161
:104CB0001092E3011A8A198A85E0FE017396DE01DB
:104CC0001D9601900D928A95E1F786E0FE013D96D2
:104CD000DE01179601900D928A95E1F7CE010796B5
:104CE0000E94BA24882389F016E08091E001909117
:104CF000AF01891349C067960FB6F894DEBF0FBEA7
:104D0000CDBFDF91CF911F91089586E0FE013796C8
:104D1000DE01119601900D928A95E1F78A859B85B7
:104D2000892B11F38F81988589238F3FE9F2209198
:104D3000AF0130E0C9010196877099274091E001E9
:104D40004817190671F40E9494171092AF0110923F
:104D5000E00186E0E9EAF1E0DF011D928A95E9F7DA
:104D6000C3CF96E0929FD001939FB00D1124A05520
:104D7000BE4FFE01319601900D929A95E1F7809316
:104D8000AF010E94FC0BB0CF819FC0011124805560
:104D90009E4F0E94BA24882309F4ADCF8091E00190
:104DA00090E00196877099278093E0019ECF1F9233
:104DB0000F920FB60F9211242F933F934F935F934F
:104DC0006F937F938F939F93AF93BF93CF93DF9313
:104DD000EF93FF93D091E900DF708091EC00C82F32
:104DE000C17080FDC0E81092E9008091F000877FDB
:104DF0008093F00078940E949F171092E9008091B0
:104E0000F00088608093F000CD2BCF70C093E90054
:104E1000FF91EF91DF91CF91BF91AF919F918F91D2
:104E20007F916F915F914F913F912F910F900FBEA6
:104E30000F901F9018951F920F920FB60F9211248A
:104E40002F933F934F935F936F937F938F939F9392
:104E5000AF93BF93EF93FF938091E10082FF15C062
:104E60008091E20082FF11C08091E1008B7F8093EE
:104E7000E100209152022F5F822F62E30E94CC2D2D
:104E8000992309F4C0C0209352028091DA0080FF78
:104E900028C08091D80080FF24C08091DA008E7FE6
:104EA0008093DA008091D90080FFE3C080E189BD62
:104EB00082E189BD09B400FEFDCF81E080936002EC
:104EC0008EE999E00E94840580915302811109C006
:104ED0000E9426060E94F1068091E2008460809381
:104EE000E2008091E10080FF1BC08091E20080FF22
:104EF00017C08091E2008E7F8093E2008091E200F3
:104F000080618093E2008091D80080628093D80015
:104F100019BC85E08093600286EA99E00E948405CE
:104F20008091E10084FF2FC08091E20084FF2BC0BC
:104F300080E189BD82E189BD89B5982F917080FF9C
:104F4000FBCF8091D8008F7D8093D8008091E100C5
:104F50008F7E8093E1008091E2008F7E8093E2005B
:104F60008091E20081608093E20080916102882359
:104F700009F489C084E0809360028AEA99E00E9483
:104F80008405809160028091E10083FF2BC08091B5
:104F9000E20083FF27C08091E100877F8093E100DA
:104FA00082E080936002109261028091E1008E7F26
:104FB0008093E1008091E2008E7F8093E2008091F7
:104FC000E20080618093E20042E060E080E00E94C5
:104FD000BF068091F00088608093F0008EEA99E02F
:104FE0000E948405FF91EF91BF91AF919F918F91A6
:104FF0007F916F915F914F913F912F910F900FBED5
:105000000F901F90189510925202809151028823A0
:1050100009F43BCF809160028430C1F49091E900A3
:105020009F702091EC00822F817020FD80E8892BF9
:1050300095E09093E9009091EB0090FF04C090916F
:10504000EE0097FD08C08F708093E9001092510226
:105050001CCF1092F1009091E80095FDFACF90914D
:10506000E80090FFF0CF9091E8009E779093E800E1
:10507000EACF19BC1092600282EA99E00E9484058E
:10508000109253022ECF8091E30087FD93E090931E
:10509000600273CF78941F921FB61F9211248F93D2
:1050A0009F93AF93BF938091490290914A02A09140
:1050B0004B02B0914C020196A11DB11D8093490293
:1050C00090934A02A0934B02B0934C02BF91AF91D0
:1050D0009F918F911F901FBE1F9018951F921FB612
:1050E0001F9211248F939F93AF93BF938091480297
:1050F000811113C08091490290914A02A0914B0204
:10510000B0914C024196A11DB11D8093490290932C
:105110004A02A0934B02B0934C02BF91AF919F9172
:105120008F911F901FBE1F901895CDB7DEB7AB971C
:105130000FB6F894DEBF0FBECDBF84B7877F84BFA4
:105140000FB6F894A8958091600088618093600004
:10515000109260000FBE80E890E00FB6F894809344
:105160006100909361000FBE85B7806885BF85B7E9
:10517000806885BF8DE19DE090938F0180938E01C3
:105180000E9426060E94F1068091E20084608093CE
:10519000E2007894809160028823A1F01091E900E8
:1051A0001F709091EC00892F817090FD80E8182B82
:1051B0001092E9008091E80083FD0E949F171F7004
:1051C0001093E90082E084BD13E015BD9AEF97BD0E
:1051D00080936E0086E90E94C70982E90E94C70990
:1051E00081E90E94C70985EF0E94C70984EF0E94E8
:1051F000C70981EF0E94C709EFEFF1E0DF01212F1E
:105200001D922A95E9F7E9EFF1E0DF011D921A9569
:10521000E9F790E080E00E94982E893E9E4F11F0C1
:105220000E947C1A82E090E00E948A2E80931B02EA
:105230000E946E1A9093F8018093F7010E94E71A7A
:10524000EFE3FCE93197F1F700C000000E94E71A94
:105250008091FF0180FF08C06FEF7FEF90E080E05A
:105260000E94BC2E0E94FF0D83E090E00E948A2ED7
:10527000682F70E090E080E00E94640F6091F3017D
:105280007091F4018091F5019091F6010E9424162D
:105290008091FC018111E0C080911B0280FF14C04D
:1052A00086E395E09F938F930E941D0680911B02D9
:1052B0000F900F9080FF08C080E295E09F938F933E
:1052C0000E941D060F900F9090E080E00E94982EA3
:1052D000893E9E4F81F080911B0280FF08C088EFBD
:1052E00094E09F938F930E941D060F900F900E9451
:1052F0007C1A0E94561788E090E00E94922E6093DC
:105300003D0270933E0280933F02909340026E7F75
:10531000D1F480911B0280FF08C08FEA94E09F9334
:105320008F930E941D060F900F900E94561788E0E1
:1053300090E00E94922E60933D0270933E02809313
:105340003F02909340020E940D0880911B0280FF53
:1053500076C086E994E09F938F930E941D0680910A
:105360001B020F900F9080FF6AC080913D028170F8
:105370001F928F9389E794E09F938F930E941D065D
:1053800080911B020F900F900F900F9080FF57C0DD
:1053900080913D0286951F928F938EE594E09F93B6
:1053A0008F930E941D0680911B020F900F900F900B
:1053B0000F9080FF44C080913E021F928F9384E43F
:1053C00094E09F938F930E941D0680911B020F9083
:1053D0000F900F900F9080FF32C080913F021F927C
:1053E0008F938AE294E09F938F930E941D06809191
:1053F0001B020F900F900F900F9080FF20C08091A4
:1054000040021F928F9380E194E09F938F930E94BC
:105410001D0680911B020F900F900F900F9080FF40
:105420000EC0809141021F928F9384EF93E09F936F
:105430008F930E941D060F900F900F900F90109267
:105440001D0280913D0280FF04C060E086950E94AD
:10545000AC1581E08093FC0120E041E960E58CE33C
:105460000E945B148DE495E09093140280931302E4
:105470000E94191760E081E00E94AC1560E070E0C6
:10548000CB010E94241661E083E090E00E949E2EF2
:1054900061E070E080E090E00E94640F80911B0268
:1054A000816080931B0280E091E09093450280939D
:1054B0004402809160028530D1F48FE895E00E942B
:1054C000840511E000E122E1F22E80916002853036
:1054D00009F44DC00E9494170E94FB071092FE0130
:1054E0008091FD0181110E9419170E9435110E94BF
:1054F000E71A882359F08FB7F894409149025091E8
:105500004A0260914B0270914C028FBF13E0612EF2
:1055100012E0712E0FEF402E01E0502E10E000E05F
:105520008DE9C82E85E0D82E95E9A92E95E0B92EF3
:105530000BA7F20121902F01D3013D903D013210C4
:1055400094C00F5F1F4F0330110591F78FEF8EA3AB
:105550008FA318A60E94C3078160782F9AA789A7F6
:105560004EA15FA168A58AA50E944726DEC0809152
:105570006002843009F452C00E94230E8091FE0123
:10558000811128C01093FE0180913D02982F9170E7
:105590009093FD018E7F80933D0280911B0280FFDE
:1055A0000CC01F921F9285E595E09F938F930E94F8
:1055B0001D060F900F900F900F900E94230EBFEFCB
:1055C000E0E7F2E0B150E040F040E1F700C0000059
:1055D0000E9457111092480288E190E0A0E40FB6B3
:1055E000F894A895809360000FBEA093600083B7E5
:1055F000817F846083BF83B7816083BF78948895FF
:1056000083B78E7F83BF0FB6F894A8958091600012
:10561000886180936000109260000FBE80915F02ED
:10562000882309F452CF0E94E71A8091FF019091DC
:105630000002892B90910102892B09F446CF09BD04
:10564000F9BC09B400FEFDCF8091D8008F7D809316
:10565000D8008091E00082608093E0008091E000BB
:1056600081FDFCCF0E94941730CF80911B0281FDF9
:105670000DC0832D8225B82FB170FB2E80FDBEC1D9
:1056800081FF34C0F2E0FF2E81E035C082EA95E070
:105690000E948405BFEF8B2EB1E09B2EF12CE12CF4
:1056A000FF92EF92DF92CF920E941D068AE995E069
:1056B0000E948405F40181914F010E94F40C1F9215
:1056C0008F93BF92AF920E941D0683E995E00E94DE
:1056D0008405FFEFEF1AFF0A0FB6F894DEBF0FBE86
:1056E000CDBF93E0E916F104D9F6C3CF82FF29CFED
:1056F000A4E0FA2E82E089A3ABA5AAA32F2081E023
:1057000009F480E08BA30E94C3078160782F9DA3DA
:105710008CA349A15AA16BA18DA10E944726F80133
:10572000ED5FFD4F8081F826F08280911D02882375
:10573000D1F180911C02E0913D02E695E81BE093D7
:105740001702823009F05CC1F0E0E154FA4FE491B5
:105750000E2F10E0E5E3EE2EE4E1FE2E809118021C
:10576000882361F0109218020E94C30790931602DA
:105770008093150210921A02109219020E94C30718
:10578000E0911502F09116028E1B9F0B8F3F9F47F1
:1057900050F4E00FF11FF0931602E093150285E13B
:1057A00092E0F701099586E0EDE0F2E0DE01119666
:1057B00001900D928A95E1F7F0900F02E0901002AF
:1057C000109111020091120210920F021092100219
:1057D00010921102109212028F2D8E2909F448C0E6
:1057E00080910B0290910C020E94B4079C01909151
:1057F0000802992309F4CBC123333105C8F19F3F37
:1058000019F09F5F90930802FF2059F00E944D0904
:105810009FEF1F140CF491E0899F802D1124809339
:105820000F02EE2059F00E944D099FEF1E140CF458
:1058300091E0899F802D11248093100230910F02F6
:105840003323B1F020911002222391F045EB340371
:10585000C0011124992309F42DC190930F0245EB47
:10586000240390011124332309F428C1309310023A
:10587000812F802B09F448C08091090290910A027F
:105880000E94B4079C0190910602992309F47AC101
:1058900025363105C8F19F3F19F09F5F90930602AE
:1058A000112359F00E942B099FEF11160CF491E07F
:1058B000899F802D112480931102002359F00E94AA
:1058C0002B099FEF10160CF491E0899F802D112475
:1058D00080931202309111023323B1F02091120211
:1058E000222391F045EB3403C0011124992309F4DC
:1058F000E9C09093110245EB240390011124332356
:1059000009F4E4C03093120280910F0290911002CA
:10591000892B90911102892B90911202892B11F001
:105920000E94320E86E0FE013196ADE0B2E00190B9
:105930000D928A95E1F70E94FB0790910202891768
:1059400039F10E94FB07182F8093020280911B02FD
:1059500082FF1EC080FF1CC08AEC95E00E94840577
:1059600080911B0280FF14C01F921F9385EC95E06D
:105970009F938F930E941D0680911B020F900F90A2
:105980000F900F9080FF04C083EC95E00E94840587
:1059900080916002843009F08CCD83E08093E9002F
:1059A0008091E80082FF85CD8091E80090E085FF3E
:1059B00006C00E944506882309F48CC091E08091BE
:1059C000E8008B778093E800992309F472CD1A815F
:1059D000113009F09BC010930D0110930C0161E090
:1059E00080E00E94061610930C0161E081E00E94A5
:1059F000061682E296E00E9484055BCD80E07BCEB5
:105A0000863059F4F0E0E454FA4FE4910E2F10E0A0
:105A100075E2E72E74E1F72EA1CE893061F4E695A8
:105A2000F0E0E754FA4FE4910E2F10E061E9E62E22
:105A300063E1F62E93CE8F3061F4E695F0E0EA5400
:105A4000FA4FE4910E2F10E053E2E52E53E1F52ECC
:105A500085CE853159F4F0E0ED54FA4FE4910E2FE4
:105A600010E045EDE42E42E1F42E78CE08E210E09D
:105A70009CE4E92E92E1F92E883109F46FCE83324D
:105A800049F4E1EBF5E0059114913CECE32E33E1B0
:105A9000F32E64CE04EF11E023E1E22E22E1F22E98
:105AA000843209F45BCE00ED17E08CE0E82E88E04C
:105AB000F82E54CE81E080930F02D1CE81E0809306
:105AC0001002D6CE81E08093110215CF81E0809341
:105AD00012021ACF00E210E0CE0101967C01809103
